{
  "contractName": "Token",
  "abi": [
    {
      "inputs": [
        {
          "internalType": "string",
          "name": "_name",
          "type": "string"
        },
        {
          "internalType": "string",
          "name": "_symbol",
          "type": "string"
        },
        {
          "internalType": "uint256",
          "name": "_initialSupply",
          "type": "uint256"
        }
      ],
      "stateMutability": "nonpayable",
      "type": "constructor"
    },
    {
      "inputs": [
        {
          "internalType": "address",
          "name": "",
          "type": "address"
        }
      ],
      "name": "balance",
      "outputs": [
        {
          "internalType": "uint256",
          "name": "",
          "type": "uint256"
        }
      ],
      "stateMutability": "view",
      "type": "function",
      "constant": true
    },
    {
      "inputs": [],
      "name": "name",
      "outputs": [
        {
          "internalType": "string",
          "name": "",
          "type": "string"
        }
      ],
      "stateMutability": "view",
      "type": "function",
      "constant": true
    },
    {
      "inputs": [],
      "name": "symbol",
      "outputs": [
        {
          "internalType": "string",
          "name": "",
          "type": "string"
        }
      ],
      "stateMutability": "view",
      "type": "function",
      "constant": true
    },
    {
      "inputs": [],
      "name": "totalSupply",
      "outputs": [
        {
          "internalType": "uint256",
          "name": "",
          "type": "uint256"
        }
      ],
      "stateMutability": "view",
      "type": "function",
      "constant": true
    },
    {
      "inputs": [
        {
          "internalType": "address",
          "name": "_account",
          "type": "address"
        },
        {
          "internalType": "uint256",
          "name": "_amount",
          "type": "uint256"
        }
      ],
      "name": "transferTokens",
      "outputs": [],
      "stateMutability": "nonpayable",
      "type": "function"
    },
    {
      "inputs": [
        {
          "internalType": "uint256",
          "name": "_amount",
          "type": "uint256"
        }
      ],
      "name": "mint",
      "outputs": [],
      "stateMutability": "nonpayable",
      "type": "function"
    },
    {
      "inputs": [
        {
          "internalType": "uint256",
          "name": "_amount",
          "type": "uint256"
        }
      ],
      "name": "redeemTokens",
      "outputs": [],
      "stateMutability": "nonpayable",
      "type": "function"
    }
  ],
  "bytecode": "0x60806040523480156200001157600080fd5b5060405162000f1638038062000f16833981810160405281019062000037919062000386565b33600260006101000a81548173ffffffffffffffffffffffffffffffffffffffff021916908373ffffffffffffffffffffffffffffffffffffffff16021790555080600360003373ffffffffffffffffffffffffffffffffffffffff1673ffffffffffffffffffffffffffffffffffffffff16815260200190815260200160002081905550806004819055508260009080519060200190620000db929190620000fe565b508160019080519060200190620000f4929190620000fe565b5050505062000484565b8280546200010c906200044f565b90600052602060002090601f0160209004810192826200013057600085556200017c565b82601f106200014b57805160ff19168380011785556200017c565b828001600101855582156200017c579182015b828111156200017b5782518255916020019190600101906200015e565b5b5090506200018b91906200018f565b5090565b5b80821115620001aa57600081600090555060010162000190565b5090565b6000604051905090565b600080fd5b600080fd5b600080fd5b600080fd5b6000601f19601f8301169050919050565b7f4e487b7100000000000000000000000000000000000000000000000000000000600052604160045260246000fd5b6200021782620001cc565b810181811067ffffffffffffffff82111715620002395762000238620001dd565b5b80604052505050565b60006200024e620001ae565b90506200025c82826200020c565b919050565b600067ffffffffffffffff8211156200027f576200027e620001dd565b5b6200028a82620001cc565b9050602081019050919050565b60005b83811015620002b75780820151818401526020810190506200029a565b83811115620002c7576000848401525b50505050565b6000620002e4620002de8462000261565b62000242565b905082815260208101848484011115620003035762000302620001c7565b5b6200031084828562000297565b509392505050565b600082601f83011262000330576200032f620001c2565b5b815162000342848260208601620002cd565b91505092915050565b6000819050919050565b62000360816200034b565b81146200036c57600080fd5b50565b600081519050620003808162000355565b92915050565b600080600060608486031215620003a257620003a1620001b8565b5b600084015167ffffffffffffffff811115620003c357620003c2620001bd565b5b620003d18682870162000318565b935050602084015167ffffffffffffffff811115620003f557620003f4620001bd565b5b620004038682870162000318565b925050604062000416868287016200036f565b9150509250925092565b7f4e487b7100000000000000000000000000000000000000000000000000000000600052602260045260246000fd5b600060028204905060018216806200046857607f821691505b6020821081036200047e576200047d62000420565b5b50919050565b610a8280620004946000396000f3fe608060405234801561001057600080fd5b506004361061007d5760003560e01c8063a0712d681161005b578063a0712d68146100dc578063a6e158f8146100f8578063bec3fa1714610114578063e3d670d7146101305761007d565b806306fdde031461008257806318160ddd146100a057806395d89b41146100be575b600080fd5b61008a610160565b60405161009791906106dc565b60405180910390f35b6100a86101ee565b6040516100b59190610717565b60405180910390f35b6100c66101f4565b6040516100d391906106dc565b60405180910390f35b6100f660048036038101906100f19190610763565b610282565b005b610112600480360381019061010d9190610763565b6103a6565b005b61012e600480360381019061012991906107ee565b6104f9565b005b61014a6004803603810190610145919061082e565b61062b565b6040516101579190610717565b60405180910390f35b6000805461016d9061088a565b80601f01602080910402602001604051908101604052809291908181526020018280546101999061088a565b80156101e65780601f106101bb576101008083540402835291602001916101e6565b820191906000526020600020905b8154815290600101906020018083116101c957829003601f168201915b505050505081565b60045481565b600180546102019061088a565b80601f016020809104026020016040519081016040528092919081815260200182805461022d9061088a565b801561027a5780601f1061024f5761010080835404028352916020019161027a565b820191906000526020600020905b81548152906001019060200180831161025d57829003601f168201915b505050505081565b3373ffffffffffffffffffffffffffffffffffffffff16600260009054906101000a900473ffffffffffffffffffffffffffffffffffffffff1673ffffffffffffffffffffffffffffffffffffffff1614610312576040517f08c379a000000000000000000000000000000000000000000000000000000000815260040161030990610907565b60405180910390fd5b80600460008282546103249190610956565b925050819055508060036000600260009054906101000a900473ffffffffffffffffffffffffffffffffffffffff1673ffffffffffffffffffffffffffffffffffffffff1673ffffffffffffffffffffffffffffffffffffffff168152602001908152602001600020600082825461039c9190610956565b9250508190555050565b80600360003373ffffffffffffffffffffffffffffffffffffffff1673ffffffffffffffffffffffffffffffffffffffff168152602001908152602001600020541015610428576040517f08c379a000000000000000000000000000000000000000000000000000000000815260040161041f906109f8565b60405180910390fd5b80600360003373ffffffffffffffffffffffffffffffffffffffff1673ffffffffffffffffffffffffffffffffffffffff16815260200190815260200160002060008282546104779190610a18565b925050819055508060036000600260009054906101000a900473ffffffffffffffffffffffffffffffffffffffff1673ffffffffffffffffffffffffffffffffffffffff1673ffffffffffffffffffffffffffffffffffffffff16815260200190815260200160002060008282546104ef9190610956565b9250508190555050565b80600360003373ffffffffffffffffffffffffffffffffffffffff1673ffffffffffffffffffffffffffffffffffffffff16815260200190815260200160002054101561057b576040517f08c379a0000000000000000000000000000000000000000000000000000000008152600401610572906109f8565b60405180910390fd5b80600360003373ffffffffffffffffffffffffffffffffffffffff1673ffffffffffffffffffffffffffffffffffffffff16815260200190815260200160002060008282546105ca9190610a18565b9250508190555080600360008473ffffffffffffffffffffffffffffffffffffffff1673ffffffffffffffffffffffffffffffffffffffff16815260200190815260200160002060008282546106209190610956565b925050819055505050565b60036020528060005260406000206000915090505481565b600081519050919050565b600082825260208201905092915050565b60005b8381101561067d578082015181840152602081019050610662565b8381111561068c576000848401525b50505050565b6000601f19601f8301169050919050565b60006106ae82610643565b6106b8818561064e565b93506106c881856020860161065f565b6106d181610692565b840191505092915050565b600060208201905081810360008301526106f681846106a3565b905092915050565b6000819050919050565b610711816106fe565b82525050565b600060208201905061072c6000830184610708565b92915050565b600080fd5b610740816106fe565b811461074b57600080fd5b50565b60008135905061075d81610737565b92915050565b60006020828403121561077957610778610732565b5b60006107878482850161074e565b91505092915050565b600073ffffffffffffffffffffffffffffffffffffffff82169050919050565b60006107bb82610790565b9050919050565b6107cb816107b0565b81146107d657600080fd5b50565b6000813590506107e8816107c2565b92915050565b6000806040838503121561080557610804610732565b5b6000610813858286016107d9565b92505060206108248582860161074e565b9150509250929050565b60006020828403121561084457610843610732565b5b6000610852848285016107d9565b91505092915050565b7f4e487b7100000000000000000000000000000000000000000000000000000000600052602260045260246000fd5b600060028204905060018216806108a257607f821691505b6020821081036108b5576108b461085b565b5b50919050565b7f4f6e6c79206f776e65722063616e206d696e7420546f6b656e73000000000000600082015250565b60006108f1601a8361064e565b91506108fc826108bb565b602082019050919050565b60006020820190508181036000830152610920816108e4565b9050919050565b7f4e487b7100000000000000000000000000000000000000000000000000000000600052601160045260246000fd5b6000610961826106fe565b915061096c836106fe565b9250827fffffffffffffffffffffffffffffffffffffffffffffffffffffffffffffffff038211156109a1576109a0610927565b5b828201905092915050565b7f4e6f7420656e6f7567682066756e647300000000000000000000000000000000600082015250565b60006109e260108361064e565b91506109ed826109ac565b602082019050919050565b60006020820190508181036000830152610a11816109d5565b9050919050565b6000610a23826106fe565b9150610a2e836106fe565b925082821015610a4157610a40610927565b5b82820390509291505056fea2646970667358221220288132986d02dda2b10bc86314cc69b47ebc022125479f2115f52a2f37b99ed064736f6c634300080d0033",
  "immutableReferences": {},
  "source": "// SPDX-License-Identifier: MIT\npragma solidity >=0.4.22 <0.9.0;\n\ncontract Token {\n    string public name; //Name for the Crypto Token.\n    string public symbol; //Symbol for the Crypto Token.\n    address owner;\n    mapping(address => uint256) public balance;\n    uint256 public totalSupply;\n\n    //Brand create their tokens when deploy this contract:\n    //[BLACKFISH - BKF] \n    //Constructors are run only once, when the contract is initially deployed.\n    constructor(\n        string memory _name,\n        string memory _symbol,\n        uint256 _initialSupply\n    ) {\n        owner = msg.sender;\n        balance[msg.sender] = _initialSupply;\n        totalSupply = _initialSupply;\n        name = _name;\n        symbol = _symbol;\n    }\n\n    //Transfer or gift Tokens to another account\n    function transferTokens(address _account, uint256 _amount) public {\n        require(balance[msg.sender] >= _amount, \"Not enough funds\");\n        balance[msg.sender] -= _amount;\n        balance[_account] += _amount;\n    }\n\n    //Mint new Tokens (Only owner can mint Tokens)\n    function mint(uint256 _amount) public {\n        require(owner == msg.sender, \"Only owner can mint Tokens\"); //Only owner can mint Tokens.\n        totalSupply += _amount;\n        balance[owner] += _amount;\n    }\n\n    //Redeem the tokens - Transfers Tokens to the main account/owner\n    //You can show the transaction hash and redeem the tokens for gifts/goods.\n    function redeemTokens(uint256 _amount) public {\n        require(balance[msg.sender] >= _amount, \"Not enough funds\");\n        balance[msg.sender] -= _amount;\n        balance[owner] += _amount;\n    }\n}\n",
  "sourcePath": "/home/jeferson/Developer/Work/python/fideliza-blockchain/contracts/Token.sol",
  "compiler": {
    "name": "solc",
    "version": "0.8.13+commit.abaa5c0e.Emscripten.clang"
  },
  "schemaVersion": "3.4.7",
  "updatedAt": "2022-04-10T15:14:08.630Z",
  "networkType": "ethereum",
  "devdoc": {
    "kind": "dev",
    "methods": {},
    "version": 1
  },
  "userdoc": {
    "kind": "user",
    "methods": {},
    "version": 1
  }
}